:100000000C942A000C943F000C943F000C943F0089
:100010000C943F000C943F000C943F000C943F0064
:100020000C943F000C943F000C943F000C943F0054
:100030000C943F000C943F000C943F000C943F0044
:100040000C943F000C943F000C943F000C943F0034
:100050000C943F0011241FBECFE5D8E0DEBFCDBF1A
:1000600010E0A0E6B0E0E8EAF2E202C005900D92EE
:10007000A836B107D9F70E949E0F0C9452110C9428
:100080000000EF92FF920F931F937B018C0120E001
:1000900030E040E05FE40E94ED0388238CF0C8016B
:1000A000B70120E030E040E05FE40E94B9010E9427
:1000B0004D049B01AC01205030404040504806C0E8
:1000C000C801B7010E944D049B01AC01B901CA01EE
:1000D0001F910F91FF90EF900895A0E0B0E0E3E74B
:1000E000F0E00C941B11DC012B01FA019C91923081
:1000F00008F439C1EB018881823008F433C19430AF
:1001000069F4843009F02FC111969C91119789816F
:10011000981709F428C1A0E6B0E025C1843009F49D
:1001200021C18230A9F4923009F01DC19A01AD01BC
:1001300088E0EA010990AE01E90109929E0181502F
:10014000C1F7E201898111969C918923818308C1BD
:10015000923009F407C112962D903C901397EB0151
:100160008A819B811496AD90BD90CD90DC901797BD
:10017000EC80FD800E811F819101281B390BB90194
:1001800037FF04C066277727621B730B6032710547
:100190000CF061C0121613066CF537014801062EEB
:1001A00004C096948794779467940A94D2F721E0D8
:1001B00030E040E050E004C0220F331F441F551FC1
:1001C0006A95D2F721503040404050402E213F21C7
:1001D00040235123211531054105510521F021E02E
:1001E00030E040E050E079018A01E628F72808294C
:1001F00019293CC0232BD1F1260E371E35014601AB
:10020000062E04C096948794779467940A94D2F744
:1002100021E030E040E050E004C0220F331F441FD3
:10022000551F6A95D2F721503040404050402A2156
:100230003B214C215D21211531054105510521F05E
:1002400021E030E040E050E059016A01A628B728DB
:10025000C828D9280BC0821593052CF01C01AA24AC
:10026000BB24650103C0EE24FF24870111969C91F5
:10027000D20111968C91981709F445C0992339F051
:10028000A80197012A193B094C095D0906C0A6017E
:1002900095012E193F09400B510B57FD08C01182E3
:1002A0003382228224833583468357831DC081E0B5
:1002B00081833382228288279927DC01821B930B5A
:1002C000A40BB50B84839583A683B7830DC0220F3F
:1002D000331F441F551F24833583468357838281F0
:1002E000938101979383828324813581468157814D
:1002F000DA01C9010197A109B1098F5F9F4FAF4F83
:10030000BF4328F30BC0918333822282EA0CFB1C8B
:100310000C1D1D1DE482F5820683178383E0808314
:10032000248135814681578157FF1AC0C901AA2708
:1003300097FDA095BA2F81709070A070B0705695FF
:10034000479537952795822B932BA42BB52B848328
:100350009583A683B7838281938101969383828359
:10036000DF0101C0D201CD01CDB7DEB7E2E10C94CF
:100370003711A0E2B0E0EFEBF1E00C9427116983B4
:100380007A838B839C832D833E834F835887E9E058
:10039000EE2EF12CEC0EFD1ECE010196B7010E944F
:1003A00076058E010F5E1F4FCE010596B8010E94A3
:1003B00076058A8991E089278A8BC701B801AE0149
:1003C000475E5F4F0E946D000E94A104A096E6E088
:1003D0000C944311A0E2B0E0E0EFF1E00C9427119F
:1003E00069837A838B839C832D833E834F835887D5
:1003F000F9E0EF2EF12CEC0EFD1ECE010196B701B7
:100400000E9476058E010F5E1F4FCE010596B80142
:100410000E947605C701B801AE01475E5F4F0E949A
:100420006D000E94A104A096E6E00C944311A0E2A6
:10043000B0E0EDE1F2E00C941B1169837A838B83C9
:100440009C832D833E834F835887CE010196BE0146
:10045000675F7F4F0E947605CE010596BE016F5EF5
:100460007F4F0E9476059985923088F08989823085
:10047000C8F0943019F4823051F404C0843029F467
:10048000923081F480E690E0C6C0923049F420E0DA
:100490009A858A89981321E02A87CE010996BBC0E4
:1004A000823049F420E09A858A89981321E02A8BCA
:1004B000CE014196B0C02D843E844F8458886D880B
:1004C0007E888F88988CEE24FF248701AA24BB2481
:1004D000650140E050E060E070E0E0E0F0E0C10184
:1004E00081709070892BE9F0E60CF71C081D191D2E
:1004F0009A01AB012A0D3B1D4C1D5D1D80E090E073
:10050000A0E0B0E0E614F7040805190520F481E046
:1005100090E0A0E0B0E0BA01A901480F591F6A1F9E
:100520007B1FAA0CBB1CCC1CDD1C97FE08C081E005
:1005300090E0A0E0B0E0A82AB92ACA2ADB2A3196C6
:10054000E032F10549F0660C771C881C991C569422
:10055000479437942794C3CFFA85EA892B893C893D
:100560008B859C85280F391F2E5F3F4F17C0CA010E
:1005700081709070892B61F016950795F794E79438
:1005800080E090E0A0E0B0E8E82AF92A0A2B1B2BD3
:1005900076956795579547952F5F3F4F77FDE7CF46
:1005A0000CC0440F551F661F771F17FD4160EE0CEE
:1005B000FF1C001F111F21503040403090E05907B0
:1005C00090E0690790E4790760F32B8F3C8FDB01A3
:1005D000CA018F779070A070B07080349105A1052A
:1005E000B10561F447FD0AC0E114F10401051105EC
:1005F00029F0405C5F4F6F4F7F4F40781A8EFE1797
:1006000011F081E08A8F4D8F5E8F6F8F78A383E02A
:10061000898FCE0149960E94A104A096E2E10C9434
:100620003711A8E1B0E0E7E1F3E00C94231169830E
:100630007A838B839C832D833E834F835887B9E0D5
:10064000EB2EF12CEC0EFD1ECE010196B7010E949F
:1006500076058E010F5E1F4FCE010596B8010E94F0
:1006600076052985223008F47EC03989323010F4AD
:10067000B8017CC08A859A8989278A87243011F03D
:10068000223031F4231709F06EC060E670E06EC0CE
:10069000343039F41D861E861F86188A1C861B86F8
:1006A00004C0323021F484E08987B7015FC02B8514
:1006B0003C858B899C89281B390B3C872B87ED84D3
:1006C000FE840F851889AD88BE88CF88D88CEA143F
:1006D000FB040C051D0540F4EE0CFF1C001F111F50
:1006E000215030403C872B8720E030E040E050E054
:1006F00080E090E0A0E0B0E460E070E0EA14FB0489
:100700000C051D0540F0282B392B4A2B5B2BEA18D2
:10071000FB080C091D09B695A79597958795EE0CD2
:10072000FF1C001F111F6F5F7F4F6F31710531F785
:10073000DA01C9018F779070A070B0708034910594
:10074000A105B10561F427FD0AC0E114F10401051A
:10075000110529F0205C3F4F4F4F5F4F20782D87C8
:100760003E874F87588BBE01675F7F4FCB010E944A
:10077000A1046896EAE00C943F11A8E1B0E0E3EC34
:10078000F3E00C94271169837A838B839C832D83F8
:100790003E834F83588789E0E82EF12CEC0EFD1E36
:1007A000CE010196B7010E9476058E010F5E1F4FA4
:1007B000CE010596B8010E9476058985823040F009
:1007C0008989823028F0C701B8010E94EE0501C076
:1007D0008FEF6896E6E00C944311A8E1B0E0E3EFF8
:1007E000F3E00C94271169837A838B839C832D8398
:1007F0003E834F83588789E0E82EF12CEC0EFD1ED6
:10080000CE010196B7010E9476058E010F5E1F4F43
:10081000CE010596B8010E9476058985823040F0A8
:100820008989823028F0C701B8010E94EE0501C015
:100830008FEF6896E6E00C944311A8E1B0E0E3E2A4
:10084000F4E00C94271169837A838B839C832D8336
:100850003E834F83588789E0E82EF12CEC0EFD1E75
:10086000CE010196B7010E9476058E010F5E1F4FE3
:10087000CE010596B8010E9476058985823040F048
:100880008989823028F0C701B8010E94EE0501C0B5
:1008900081E06896E6E00C944311ACE0B0E0E3E55B
:1008A000F4E00C942B1169837A838B839C83CE01B3
:1008B0000196BE016B5F7F4F0E9476058D8182306D
:1008C00061F1823050F1843021F48E81882351F11E
:1008D0002EC02F81388537FD20C06E812F31310524
:1008E0001CF06623F9F023C08EE190E0821B930B8D
:1008F00029853A854B855C8504C056954795379583
:1009000027958A95D2F76623B1F05095409530959A
:1009100021953F4F4F4F5F4F0EC020E030E040E049
:1009200050E009C02FEF3FEF4FEF5FE704C020E03A
:1009300030E040E050E8B901CA012C96E2E00C94A6
:100940004711DF92EF92FF920F931F93FC01E48017
:10095000F58006811781D1808081823048F480E063
:1009600090E0A0E1B0E0E82AF92A0A2B1B2BA5C0F1
:10097000843009F49FC0823021F4EE24FF248701E3
:1009800005C0E114F1040105110519F4E0E0F0E0FF
:1009900096C0628173819FEF623879070CF05BC06B
:1009A00022E83FEF261B370B2A3131052CF020E0DF
:1009B00030E040E050E02AC0B801A701022E04C098
:1009C00076956795579547950A94D2F781E090E020
:1009D000A0E0B0E004C0880F991FAA1FBB1F2A9592
:1009E000D2F70197A109B1098E219F21A023B1233C
:1009F0000097A105B10521F081E090E0A0E0B0E012
:100A00009A01AB01282B392B4A2B5B2BDA01C90148
:100A10008F779070A070B07080349105A105B105FA
:100A200039F427FF09C0205C3F4F4F4F5F4F04C090
:100A3000215C3F4F4F4F5F4FE0E0F0E02030A0E0FF
:100A40003A07A0E04A07A0E45A0710F0E1E0F0E01E
:100A500079018A0127C06038710564F5FB01E1580E
:100A6000FF4FD801C7018F779070A070B0708034AD
:100A70009105A105B10539F4E7FE0DC080E490E0D1
:100A8000A0E0B0E004C08FE390E0A0E0B0E0E80EAA
:100A9000F91E0A1F1B1F17FF05C016950795F7942F
:100AA000E794319687E016950795F794E7948A9531
:100AB000D1F705C0EE24FF248701EFEFF0E06E2FA1
:100AC000679566276795902F9F77D794DD24D794F5
:100AD0008E2F8695492F462B582F5D29B701CA01C5
:100AE0001F910F91FF90EF90DF900895FC01DB01C3
:100AF000408151812281622F6F7770E0221F22276F
:100B0000221F9381892F880F822B282F30E0991F75
:100B10009927991F11969C93119721153105A9F5D5
:100B2000411551056105710511F482E037C082E875
:100B30009FEF13969C938E9312979A01AB0167E0F7
:100B4000220F331F441F551F6A95D1F783E08C9302
:100B50000DC0220F331F441F551F12968D919C917B
:100B60001397019713969C938E931297203080E0F1
:100B7000380780E0480780E4580758F314962D930F
:100B80003D934D935C93179708952F3F310579F46A
:100B9000411551056105710519F484E08C930895A0
:100BA00064FF03C081E08C9312C01C9210C02F57C9
:100BB000304013963C932E93129783E08C9387E0FA
:100BC000440F551F661F771F8A95D1F770641496DE
:100BD0004D935D936D937C93179708951F93DC015C
:100BE000FB019C91923008F447C08081823008F468
:100BF00043C0943051F411961C91843099F5818151
:100C0000682F70E0611B71093FC0843021F0923081
:100C100031F48230B9F18181882389F12DC0119698
:100C20001C9111978230F1F081811817D9F4129636
:100C30002D913C911397828193818217930794F0B1
:100C400028173907BCF014968D919D910D90BC9199
:100C5000A02D2481358146815781281739074A07FD
:100C60005B0718F4112341F00AC082179307A40709
:100C7000B50740F4112319F061E070E005C06FEF93
:100C80007FEF02C060E070E0CB011F910895DF9319
:100C9000CF93CDB7DEB7A7E2B0E0E7E2F0E0808126
:100CA00080648C93A7E2B0E0E7E2F0E080818068A6
:100CB0008C93A7E2B0E0E7E2F0E080818F7D8C9337
:100CC000A6E2B0E0E6E2F0E080818F7D8C93A6E2C0
:100CD000B0E0E6E2F0E080818E7F8C93A6E2B0E0A7
:100CE000E6E2F0E0808182608C93A6E2B0E0E6E28A
:100CF000F0E0808184608C93A6E2B0E0E6E2F0E070
:100D0000808180688C93CF91DF910895DF93CF939A
:100D100000D00F92CDB7DEB78B83A7E2B0E0E7E259
:100D2000F0E08081807E8C93A7E2B0E0E7E2F0E023
:100D300090818B81892B8C93A6E2B0E0E6E2F0E013
:100D4000808180648C93E6E2F0E0808182958F70F0
:100D5000882F90E0817090700097A9F3A6E2B0E030
:100D6000E6E2F0E0808180618C93E4E2F0E0808153
:100D700091819A83898389819A810F900F900F9036
:100D8000CF91DF910895DF93CF93CDB7DEB727974B
:100D90000FB6F894DEBF0FBECDBF89836A834B8345
:100DA0008B81813009F06FC08981282F30E03F832B
:100DB0002E838E819F818130910549F12E813F8163
:100DC000223031052CF48E819F81009761F0D2C0D2
:100DD0002E813F812230310571F18E819F818330D8
:100DE0009105E9F1C7C0AAE3B0E0EAE3F0E0808151
:100DF000482F8A81282F30E081E090E0022E02C047
:100E0000880F991F0A94E2F7842B8C93B3C0A7E351
:100E1000B0E0E7E3F0E08081482F8A81282F30E0BE
:100E200081E090E0022E02C0880F991F0A94E2F739
:100E3000842B8C939FC0A4E3B0E0E4E3F0E08081D6
:100E4000482F8A81282F30E081E090E0022E02C0F6
:100E5000880F991F0A94E2F7842B8C938BC0A1E32F
:100E6000B0E0E1E3F0E08081482F8A81282F30E074
:100E700081E090E0022E02C0880F991F0A94E2F7E9
:100E8000842B8C9377C08B81882309F073C0898170
:100E9000282F30E03D832C838C819D81813091050A
:100EA00059F12C813D81223031052CF48C819D81BA
:100EB000009769F05FC02C813D812230310589F1B6
:100EC0008C819D818330910509F440C053C0AAE311
:100ED000B0E0EAE3F0E08081482F8A81282F30E0FB
:100EE00081E090E0022E02C0880F991F0A94E2F779
:100EF000809584238C933EC0A7E3B0E0E7E3F0E065
:100F00008081482F8A81282F30E081E090E0022EF6
:100F100002C0880F991F0A94E2F7809584238C936E
:100F200029C0A4E3B0E0E4E3F0E08081482F8A81A7
:100F3000282F30E081E090E0022E02C0880F991F38
:100F40000A94E2F7809584238C9314C0A1E3B0E067
:100F5000E1E3F0E08081482F8A81282F30E081E0B2
:100F600090E0022E02C0880F991F0A94E2F7809544
:100F700084238C9327960FB6F894DEBF0FBECDBFA7
:100F8000CF91DF910895DF93CF93CDB7DEB7279749
:100F90000FB6F894DEBF0FBECDBF89836A834B8343
:100FA0008B81813009F06FC08981282F30E03F8329
:100FB0002E838E819F818130910549F12E813F8161
:100FC000223031052CF48E819F81009761F0D2C0D0
:100FD0002E813F812230310571F18E819F818330D6
:100FE0009105E9F1C7C0ABE3B0E0EBE3F0E080814D
:100FF000482F8A81282F30E081E090E0022E02C045
:10100000880F991F0A94E2F7842B8C93B3C0A8E34E
:10101000B0E0E8E3F0E08081482F8A81282F30E0BB
:1010200081E090E0022E02C0880F991F0A94E2F737
:10103000842B8C939FC0A5E3B0E0E5E3F0E08081D2
:10104000482F8A81282F30E081E090E0022E02C0F4
:10105000880F991F0A94E2F7842B8C938BC0A2E32C
:10106000B0E0E2E3F0E08081482F8A81282F30E071
:1010700081E090E0022E02C0880F991F0A94E2F7E7
:10108000842B8C9377C08B81882309F073C089816E
:10109000282F30E03D832C838C819D818130910508
:1010A00059F12C813D81223031052CF48C819D81B8
:1010B000009769F05FC02C813D812230310589F1B4
:1010C0008C819D818330910509F440C053C0ABE30E
:1010D000B0E0EBE3F0E08081482F8A81282F30E0F8
:1010E00081E090E0022E02C0880F991F0A94E2F777
:1010F000809584238C933EC0A8E3B0E0E8E3F0E061
:101100008081482F8A81282F30E081E090E0022EF4
:1011100002C0880F991F0A94E2F7809584238C936C
:1011200029C0A5E3B0E0E5E3F0E08081482F8A81A3
:10113000282F30E081E090E0022E02C0880F991F36
:101140000A94E2F7809584238C9314C0A2E3B0E064
:10115000E2E3F0E08081482F8A81282F30E081E0AF
:1011600090E0022E02C0880F991F0A94E2F7809542
:1011700084238C9327960FB6F894DEBF0FBECDBFA5
:10118000CF91DF910895DF93CF9300D000D0CDB7FA
:10119000DEB789836A838981282F30E03C832B83E3
:1011A0008B819C8181309105D1F02B813C81223053
:1011B00031052CF48B819C81009761F01EC02B813E
:1011C0003C812230310581F08B819C8183309105F7
:1011D00081F013C0EAE3F0E08A8180830EC0E7E388
:1011E000F0E08A81808309C0E4E3F0E08A818083B3
:1011F00004C0E1E3F0E08A8180830F900F900F90AC
:101200000F90CF91DF910895DF93CF9300D000D05E
:10121000CDB7DEB789836A838981282F30E03C838C
:101220002B838B819C8181309105D1F02B813C8176
:10123000223031052CF48B819C81009761F01EC017
:101240002B813C812230310581F08B819C81833060
:10125000910581F013C0EBE3F0E08A8180830EC03A
:10126000E8E3F0E08A81808309C0E5E3F0E08A8169
:10127000808304C0E2E3F0E08A8180830F900F90C6
:101280000F900F90CF91DF910895DF93CF9300D00F
:1012900000D0CDB7DEB789836A838981282F30E0FB
:1012A0003C832B838B819C818130910549F12B817B
:1012B0003C81223031052CF48B819C81009761F0B8
:1012C0005AC02B813C812230310571F18B819C8188
:1012D00083309105E9F14FC0ABE3B0E0EBE3F0E020
:1012E0008081482F8A81282F30E081E090E0022E13
:1012F00002C0880F991F0A94E2F784278C933BC0A1
:10130000A8E3B0E0E8E3F0E08081482F8A81282F4D
:1013100030E081E090E0022E02C0880F991F0A940D
:10132000E2F784278C9327C0A5E3B0E0E5E3F0E083
:101330008081482F8A81282F30E081E090E0022EC2
:1013400002C0880F991F0A94E2F784278C9313C078
:10135000A2E3B0E0E2E3F0E08081482F8A81282F09
:1013600030E081E090E0022E02C0880F991F0A94BD
:10137000E2F784278C930F900F900F900F90CF91EE
:10138000DF910895DF93CF93CDB7DEB729970FB6DE
:10139000F894DEBF0FBECDBF89836A838981282F71
:1013A00030E038872F838F81988581309105C9F08F
:1013B0002F813885223031052CF48F819885009754
:1013C00061F01AC02F8138852230310571F08F818C
:1013D00098858330910569F00FC0E9E3F0E09081D2
:1013E0000BC0E6E3F0E0208107C0E3E3F0E03081EA
:1013F00003C0E0E3F0E0808129960FB6F894DEBFE9
:101400000FBECDBFCF91DF9108950F931F93DF9350
:10141000CF93CDB7DEB7CC54D0400FB6F894DEBF33
:101420000FBECDBF82E060E041E00E94C30682E0D3
:1014300061E041E00E94C30682E062E041E00E9478
:10144000C30683E06FEF0E94C308FE01E75BFF4F16
:1014500080E090E0ACE0B2E480839183A283B38328
:101460008E010B5B1F4FFE01E75BFF4F60817181B7
:101470008281938120E030E04AEF54E40E94170219
:10148000DC01CB01F80180839183A283B383FE0149
:10149000EB5BFF4F608171818281938120E030E0BE
:1014A00040E85FE30E941D04882344F4FE01ED5BE5
:1014B000FF4F81E090E09183808364C0FE01EB5B8D
:1014C000FF4F608171818281938120E03FEF4FE780
:1014D00057E40E94BD0318160CF043C0FE01E75B01
:1014E000FF4F608171818281938120E030E040E292
:1014F00051E40E941702DC01CB018E010D5B1F4FEE
:10150000BC01CD010E944100DC01CB01F8019183B7
:1015100080831FC0FE01EF5BFF4F88EC90E091835A
:101520008083FE01EF5BFF4F808191810197F1F78E
:10153000FE01EF5BFF4F91838083DE01AD5BBF4F08
:10154000FE01ED5BFF4F80819181019711969C9385
:101550008E93FE01ED5BFF4F808191810097D1F664
:1015600024C08E010D5B1F4FFE01EB5BFF4F6081BE
:101570007181828193810E944100DC01CB01F801DD
:1015800091838083FE01ED5BFF4F80819181FE019D
:10159000FF9691838083FE01FF9680819181019760
:1015A000F1F7FE01FF969183808388E30E94DB0CB4
:1015B00080E090E0A4E3B2E48BAF9CAFADAFBEAFF0
:1015C0006BAD7CAD8DAD9EAD2BEA3AEA4AE250E4BC
:1015D0000E941702DC01CB018FAB98AFA9AFBAAF65
:1015E0006FA978AD89AD9AAD20E030E040E85FE3C7
:1015F0000E941D0488231CF481E08EAB91C06FA96A
:1016000078AD89AD9AAD20E030E04FE753E40E9419
:10161000BD0318160CF07BC06BAD7CAD8DAD9EADDF
:1016200020E030E04AE754E40E941103DC01CB01E2
:101630008AAB9BABACABBDAB6AA97BA98CA99DA9BE
:1016400020E030E04AEF54E40E941702DC01CB01B5
:101650008EA79FA7A8ABB9AB6EA57FA588A999A9AE
:1016600020E030E040E85FE30E941D0488232CF472
:1016700081E090E09DA78CA73FC06EA57FA588A9BB
:1016800099A920E03FEF4FE757E40E94BD031816E9
:101690004CF56AA97BA98CA99DA920E030E040E225
:1016A00051E40E941702DC01CB01BC01CD010E9474
:1016B0004100DC01CB019DA78CA70FC088EC90E016
:1016C0009BA78AA78AA59BA50197F1F79BA78AA745
:1016D0008CA59DA501979DA78CA78CA59DA500977E
:1016E00069F724C06EA57FA588A999A90E94410029
:1016F000DC01CB019DA78CA78CA59DA599A788A7E8
:1017000088A599A50197F1F799A788A70FC06FA998
:1017100078AD89AD9AAD0E944100DC01CB018EAB62
:101720008EA98FA38FA18A95F1F78FA38CE00E94D9
:10173000DB0C80E090E0A4E3B2E48BA39CA3ADA318
:10174000BEA36BA17CA18DA19EA12BEA3AEA4AE23D
:1017500050E40E941702DC01CB018F8F98A3A9A34C
:10176000BAA36F8D78A189A19AA120E030E040E86A
:101770005FE30E941D0488231CF481E08E8F91C0DA
:101780006F8D78A189A19AA120E030E04FE753E462
:101790000E94BD0318160CF07BC06BA17CA18DA12B
:1017A0009EA120E030E04AE754E40E941103DC01EE
:1017B000CB018A8F9B8FAC8FBD8F6A8D7B8D8C8D7B
:1017C0009D8D20E030E04AEF54E40E941702DC01D6
:1017D000CB018E8B9F8BA88FB98F6E897F89888D67
:1017E000998D20E030E040E85FE30E941D048823EB
:1017F0002CF481E090E09D8B8C8B3FC06E897F89BB
:10180000888D998D20E03FEF4FE757E40E94BD039C
:1018100018164CF56A8D7B8D8C8D9D8D20E030E007
:1018200040E251E40E941702DC01CB01BC01CD0172
:101830000E944100DC01CB019D8B8C8B0FC088EC9A
:1018400090E09B8B8A8B8A899B890197F1F79B8B10
:101850008A8B8C899D8901979D8B8C8B8C899D8926
:10186000009769F724C06E897F89888D998D0E94C1
:101870004100DC01CB019D8B8C8B8C899D89998BE0
:10188000888B888999890197F1F7998B888B0FC08C
:101890006F8D78A189A19AA10E944100DC01CB0142
:1018A0008E8F8E8D8F878F858A95F1F78F8781E058
:1018B0000E94DB0C80E090E0A0E0B0E48B879C8786
:1018C000AD87BE876B857C858D859E8520E030E069
:1018D0004AEF54E40E941702DC01CB018F83988702
:1018E000A987BA876F81788589859A8520E030E05D
:1018F00040E85FE30E941D0488232CF481E090E01F
:101900009E838D833FC06F81788589859A8520E08D
:101910003FEF4FE757E40E94BD0318164CF56B8567
:101920007C858D859E8520E030E040E251E40E9478
:101930001702DC01CB01BC01CD010E944100DC019A
:10194000CB019E838D830FC088EC90E09C838B83BA
:101950008B819C810197F1F79C838B838D819E8184
:1019600001979E838D838D819E81009769F714C0B6
:101970006F81788589859A850E944100DC01CB01C1
:101980009E838D838D819E819A83898389819A81AB
:101990000197F1F79A83898386E00E94DB0CC45B90
:1019A000DF4F0FB6F894DEBF0FBECDBFCF91DF91F2
:1019B0001F910F910895DF93CF93CDB7DEB769974D
:1019C0000FB6F894DEBF0FBECDBF898F82E060E016
:1019D00040E00E94C30782E061E040E00E94C3074C
:1019E00083E0698D0E94040982E062E041E00E9488
:1019F000C30780E090E0A0E8BFE38D8B9E8BAF8BA8
:101A0000B88F6D897E898F89988D2BEA3AEA4AE2F0
:101A100050E40E941702DC01CB01898B9A8BAB8BBF
:101A2000BC8B69897A898B899C8920E030E040E809
:101A30005FE30E941D0488231CF481E0888B91C021
:101A400069897A898B899C8920E030E04FE753E4EB
:101A50000E94BD0318160CF07BC06D897E898F89AA
:101A6000988D20E030E04AE754E40E941103DC0145
:101A7000CB018C879D87AE87BF876C857D858E85E2
:101A80009F8520E030E04AEF54E40E941702DC0119
:101A9000CB0188879987AA87BB87688579858A85DE
:101AA0009B8520E030E040E85FE30E941D0488232E
:101AB0002CF481E090E09F838E833FC06885798518
:101AC0008A859B8520E03FEF4FE757E40E94BD03E6
:101AD00018164CF56C857D858E859F8520E030E05D
:101AE00040E251E40E941702DC01CB01BC01CD01B0
:101AF0000E944100DC01CB019F838E830FC088ECE4
:101B000090E09D838C838C819D810197F1F79D836B
:101B10008C838E819F8101979F838E838E819F818D
:101B2000009769F724C0688579858A859B850E941E
:101B30004100DC01CB019F838E838E819F819B833B
:101B40008A838A819B810197F1F79B838A830FC0E7
:101B500069897A898B899C890E944100DC01CB01CB
:101B6000888B8889898389818A95F1F7898382E0C6
:101B700062E040E00E94C30769960FB6F894DEBFAA
:101B80000FBECDBFCF91DF910895DF93CF93CDB737
:101B9000DEB769970FB6F894DEBF0FBECDBF898F51
:101BA00082E060E041E00E94C30782E061E040E043
:101BB0000E94C30783E0698D0E94040982E062E00D
:101BC00041E00E94C30780E090E0A0E8BFE38D8B76
:101BD0009E8BAF8BB88F6D897E898F89988D2BEA0C
:101BE0003AEA4AE250E40E941702DC01CB01898BF9
:101BF0009A8BAB8BBC8B69897A898B899C8920E015
:101C000030E040E85FE30E941D0488231CF481E07B
:101C1000888B91C069897A898B899C8920E030E022
:101C20004FE753E40E94BD0318160CF07BC06D898A
:101C30007E898F89988D20E030E04AE754E40E9445
:101C40001103DC01CB018C879D87AE87BF876C8534
:101C50007D858E859F8520E030E04AEF54E40E9428
:101C60001702DC01CB0188879987AA87BB87688523
:101C700079858A859B8520E030E040E85FE30E941B
:101C80001D0488232CF481E090E09F838E833FC065
:101C9000688579858A859B8520E03FEF4FE757E48B
:101CA0000E94BD0318164CF56C857D858E859F8539
:101CB00020E030E040E251E40E941702DC01CB0159
:101CC000BC01CD010E944100DC01CB019F838E83CA
:101CD0000FC088EC90E09D838C838C819D8101975F
:101CE000F1F79D838C838E819F8101979F838E83E3
:101CF0008E819F81009769F724C0688579858A85E0
:101D00009B850E944100DC01CB019F838E838E81E5
:101D10009F819B838A838A819B810197F1F79B83B3
:101D20008A830FC069897A898B899C890E944100C6
:101D3000DC01CB01888B8889898389818A95F1F7B9
:101D4000898382E062E040E00E94C30769960FB693
:101D5000F894DEBF0FBECDBFCF91DF910895DF9322
:101D6000CF9300D000D0CDB7DEB79C838B831A828F
:101D700019820FC029813A818B819C81FC01E20F7D
:101D8000F31F80810E94C50D89819A8101969A83F3
:101D9000898329813A818B819C81FC01E20FF31FA9
:101DA0008081882339F70F900F900F900F90CF917B
:101DB000DF910895DF93CF93CDB7DEB72C970FB6A1
:101DC000F894DEBF0FBECDBF69877A878B879C876B
:101DD00081E090E0A0E0B0E08D839E83AF83B88780
:101DE00019821A821B821C8289859A85AB85BC85E3
:101DF0000097A105B105B1F480E30E94C50D7AC03A
:101E00008D819E81AF81B8852AE030E040E050E0CE
:101E1000BC01CD010E94C610DC01CB018D839E83E5
:101E2000AF83B88789859A85AB85BC852D813E8136
:101E30004F815885BC01CD010E94F910DA01C9011A
:101E40000097A105B105E1F68D819E81AF81B8852E
:101E50002AE030E040E050E0BC01CD010E94F910E2
:101E6000DA01C9018D839E83AF83B8873AC0898523
:101E70009A85AB85BC852D813E814F815885BC01FB
:101E8000CD010E94F910DA01C90189839A83AB83DD
:101E9000BC838981805D0E94C50D89859A85AB854B
:101EA000BC852D813E814F815885BC01CD010E94AA
:101EB000F910DC01CB0189879A87AB87BC878D81BC
:101EC0009E81AF81B8852AE030E040E050E0BC015F
:101ED000CD010E94F910DA01C9018D839E83AF8381
:101EE000B8878D819E81AF81B8850097A105B10526
:101EF00009F0BDCF2C960FB6F894DEBF0FBECDBF54
:101F0000CF91DF910895DF93CF9300D0CDB7DEB7A7
:101F100089836A838981882329F48A8180580E9471
:101F2000DB0C07C08981813021F48A8180540E94B2
:101F3000DB0C0F900F90CF91DF910895DF93CF933B
:101F4000CDB7DEB7A2970FB6F894DEBF0FBECDBFF8
:101F50000E9447060E94050A80E00E9486069AA316
:101F600089A389A19AA1CC01A0E0B0E020E03AE0E9
:101F700040E050E0BC01CD010E94C610DC01CB0165
:101F8000072E7AE0B695A795979587957A95D1F71C
:101F9000702D98A38F8F8F8D98A12AE030E0B90122
:101FA0000E94E510CB019E8F8D8F8D8D9E8DCC0173
:101FB000A0E0B0E0BC01CD010E94DA0E80E090E02C
:101FC000AAEFB4E4898F9A8FAB8FBC8F698D7A8D1D
:101FD0008B8D9C8D20E030E04AEF54E40E94170284
:101FE000DC01CB018D8B9E8BAF8BB88F6D897E8989
:101FF0008F89988D20E030E040E85FE30E941D0467
:1020000088232CF481E090E09C8B8B8B3FC06D8902
:102010007E898F89988D20E03FEF4FE757E40E943B
:10202000BD0318164CF5698D7A8D8B8D9C8D20E043
:1020300030E040E251E40E941702DC01CB01BC0118
:10204000CD010E944100DC01CB019C8B8B8B0FC02A
:1020500088EC90E09A8B898B89899A890197F1F7AE
:102060009A8B898B8B899C8901979C8B8B8B8B8915
:102070009C89009769F714C06D897E898F89988D36
:102080000E944100DC01CB019C8B8B8B8B899C894E
:10209000988B8F878F8598890197F1F7988B8F8719
:1020A00081E00E94DB0C80E090E0AAEFB3E48B8734
:1020B0009C87AD87BE876B857C858D859E8520E05E
:1020C00030E04AEF54E40E941702DC01CB018F8319
:1020D0009887A987BA876F81788589859A8520E056
:1020E00030E040E85FE30E941D0488232CF481E087
:1020F00090E09E838D833FC06F81788589859A8526
:1021000020E03FEF4FE757E40E94BD0318164CF55F
:102110006B857C858D859E8520E030E040E251E432
:102120000E941702DC01CB01BC01CD010E944100DD
:10213000DC01CB019E838D830FC088EC90E09C83F3
:102140008B838B819C810197F1F79C838B838D819D
:102150009E8101979E838D838D819E81009769F773
:10216000FBCE6F81788589859A850E944100DC01CC
:10217000CB019E838D838D819E819A838983898102
:102180009A810197F1F79A838983E6CE629FD00105
:10219000739FF001829FE00DF11D649FE00DF11D22
:1021A000929FF00D839FF00D749FF00D659FF00DD1
:1021B0009927729FB00DE11DF91F639FB00DE11DBE
:1021C000F91FBD01CF0111240895AA1BBB1B51E1CA
:1021D00007C0AA1FBB1FA617B70710F0A61BB70B97
:1021E000881F991F5A95A9F780959095BC01CD013C
:1021F0000895A1E21A2EAA1BBB1BFD010DC0AA1F48
:10220000BB1FEE1FFF1FA217B307E407F50720F05F
:10221000A21BB30BE40BF50B661F771F881F991FDA
:102220001A9469F760957095809590959B01AC0123
:10223000BD01CF0108952F923F924F925F926F920E
:102240007F928F929F92AF92BF92CF92DF92EF9246
:10225000FF920F931F93CF93DF93CDB7DEB7CA1BC7
:10226000DB0B0FB6F894DEBF0FBECDBF09942A88F2
:10227000398848885F846E847D848C849B84AA849A
:10228000B984C884DF80EE80FD800C811B81AA8127
:10229000B981CE0FD11D0FB6F894DEBF0FBECDBFF2
:0822A000ED010895F894FFCF51
:0822A80000000000000000002E
:00000001FF
