:100000000C942A000C943C000C943C000C943C0092
:100010000C943C000C943C000C943C000C943C0070
:100020000C943C000C943C000C94AA040C946404C2
:100030000C943C000C943C000C943C000C943C0050
:100040000C943C000C943C000C943C000C943C0040
:100050000C943C0011241FBECFE5D8E0DEBFCDBF1D
:1000600010E0A0E6B0E001C01D92AC37B107E1F7A7
:100070000E940D050C945D050C940000DF93CF9356
:10008000CDB7DEB727970FB6F894DEBF0FBECDBF52
:1000900089836A834B838B81813009F06FC08981AA
:1000A000282F30E03F832E838E819F818130910500
:1000B00049F12E813F81223031052CF48E819F81C0
:1000C000009761F0D2C02E813F812230310571F15D
:1000D0008E819F8183309105E9F1C7C0AAE3B0E02A
:1000E000EAE3F0E08081482F8A81282F30E081E028
:1000F00090E0022E02C0880F991F0A94E2F7842B29
:100100008C93B3C0A7E3B0E0E7E3F0E08081482F31
:100110008A81282F30E081E090E0022E02C0880F13
:10012000991F0A94E2F7842B8C939FC0A4E3B0E05C
:10013000E4E3F0E08081482F8A81282F30E081E0DD
:1001400090E0022E02C0880F991F0A94E2F7842BD8
:100150008C938BC0A1E3B0E0E1E3F0E08081482F15
:100160008A81282F30E081E090E0022E02C0880FC3
:10017000991F0A94E2F7842B8C9377C08B81882394
:1001800009F073C08981282F30E03D832C838C8156
:100190009D818130910559F12C813D8122303105BD
:1001A0002CF48C819D81009769F05FC02C813D818A
:1001B0002230310589F18C819D818330910509F4CC
:1001C00040C053C0AAE3B0E0EAE3F0E08081482FEA
:1001D0008A81282F30E081E090E0022E02C0880F53
:1001E000991F0A94E2F7809584238C933EC0A7E37D
:1001F000B0E0E7E3F0E08081482F8A81282F30E0EB
:1002000081E090E0022E02C0880F991F0A94E2F765
:10021000809584238C9329C0A4E3B0E0E4E3F0E06C
:100220008081482F8A81282F30E081E090E0022EE3
:1002300002C0880F991F0A94E2F7809584238C935B
:1002400014C0A1E3B0E0E1E3F0E08081482F8A81AF
:10025000282F30E081E090E0022E02C0880F991F25
:100260000A94E2F7809584238C9327960FB6F8942E
:10027000DEBF0FBECDBFCF91DF910895DF93CF9347
:10028000CDB7DEB727970FB6F894DEBF0FBECDBF50
:1002900089836A834B838B81813009F06FC08981A8
:1002A000282F30E03F832E838E819F8181309105FE
:1002B00049F12E813F81223031052CF48E819F81BE
:1002C000009761F0D2C02E813F812230310571F15B
:1002D0008E819F8183309105E9F1C7C0ABE3B0E027
:1002E000EBE3F0E08081482F8A81282F30E081E025
:1002F00090E0022E02C0880F991F0A94E2F7842B27
:100300008C93B3C0A8E3B0E0E8E3F0E08081482F2D
:100310008A81282F30E081E090E0022E02C0880F11
:10032000991F0A94E2F7842B8C939FC0A5E3B0E059
:10033000E5E3F0E08081482F8A81282F30E081E0DA
:1003400090E0022E02C0880F991F0A94E2F7842BD6
:100350008C938BC0A2E3B0E0E2E3F0E08081482F11
:100360008A81282F30E081E090E0022E02C0880FC1
:10037000991F0A94E2F7842B8C9377C08B81882392
:1003800009F073C08981282F30E03D832C838C8154
:100390009D818130910559F12C813D8122303105BB
:1003A0002CF48C819D81009769F05FC02C813D8188
:1003B0002230310589F18C819D818330910509F4CA
:1003C00040C053C0ABE3B0E0EBE3F0E08081482FE6
:1003D0008A81282F30E081E090E0022E02C0880F51
:1003E000991F0A94E2F7809584238C933EC0A8E37A
:1003F000B0E0E8E3F0E08081482F8A81282F30E0E8
:1004000081E090E0022E02C0880F991F0A94E2F763
:10041000809584238C9329C0A5E3B0E0E5E3F0E068
:100420008081482F8A81282F30E081E090E0022EE1
:1004300002C0880F991F0A94E2F7809584238C9359
:1004400014C0A2E3B0E0E2E3F0E08081482F8A81AB
:10045000282F30E081E090E0022E02C0880F991F23
:100460000A94E2F7809584238C9327960FB6F8942C
:10047000DEBF0FBECDBFCF91DF910895DF93CF9345
:1004800000D000D0CDB7DEB789836A838981282F59
:1004900030E03C832B838B819C8181309105D1F0AE
:1004A0002B813C81223031052CF48B819C8100977B
:1004B00061F01EC02B813C812230310581F08B819F
:1004C0009C818330910581F013C0EAE3F0E08A81DA
:1004D00080830EC0E7E3F0E08A81808309C0E4E313
:1004E000F0E08A81808304C0E1E3F0E08A818083C8
:1004F0000F900F900F900F90CF91DF910895DF93A1
:10050000CF9300D000D0CDB7DEB789836A838981CD
:10051000282F30E03C832B838B819C818130910597
:10052000D1F02B813C81223031052CF48B819C81D0
:10053000009761F01EC02B813C812230310581F093
:100540008B819C818330910581F013C0EBE3F0E057
:100550008A8180830EC0E8E3F0E08A81808309C04D
:10056000E5E3F0E08A81808304C0E2E3F0E08A8181
:1005700080830F900F900F900F90CF91DF9108958F
:10058000DF93CF9300D000D0CDB7DEB789836A83E5
:100590008981282F30E03C832B838B819C818130A3
:1005A000910549F12B813C81223031052CF48B815E
:1005B0009C81009761F05AC02B813C81223031052B
:1005C00071F18B819C8183309105E9F14FC0ABE3E0
:1005D000B0E0EBE3F0E08081482F8A81282F30E003
:1005E00081E090E0022E02C0880F991F0A94E2F782
:1005F00084278C933BC0A8E3B0E0E8E3F0E080817F
:10060000482F8A81282F30E081E090E0022E02C03E
:10061000880F991F0A94E2F784278C9327C0A5E3DB
:10062000B0E0E5E3F0E08081482F8A81282F30E0B8
:1006300081E090E0022E02C0880F991F0A94E2F731
:1006400084278C9313C0A2E3B0E0E2E3F0E0808162
:10065000482F8A81282F30E081E090E0022E02C0EE
:10066000880F991F0A94E2F784278C930F900F90BC
:100670000F900F90CF91DF910895DF93CF93CDB777
:10068000DEB729970FB6F894DEBF0FBECDBF8983C2
:100690006A838981282F30E038872F838F8198855E
:1006A00081309105C9F02F813885223031052CF435
:1006B0008F819885009761F01AC02F81388522308C
:1006C000310571F08F8198858330910569F00FC0F5
:1006D000E9E3F0E090810BC0E6E3F0E0208107C0A1
:1006E000E3E3F0E0308103C0E0E3F0E080812996AD
:1006F0000FB6F894DEBF0FBECDBFCF91DF91089546
:10070000DF93CF9300D0CDB7DEB79A8389838981F9
:100710009A810E9452040E9416040F900F90CF916C
:10072000DF910895DF93CF9300D000D00F92CDB723
:10073000DEB79A8389837C836B834D832B813C81D5
:10074000C901880F991F880F991F820F931FFC0101
:10075000EF59FF4F8B819C81918380832B813C815A
:10076000C901880F991F880F991F820F931FFC01E1
:10077000ED59FF4F89819A81918380830F900F906B
:100780000F900F900F90CF91DF910895DF93CF934B
:100790000F92CDB7DEB780917400909175000196ED
:1007A000909375008093740019822DC0409174005D
:1007B000509175008981282F30E0C901880F991F59
:1007C000880F991F820F931FFC01EF59FF4F208163
:1007D0003181CA01B9010E944905009789F48981D4
:1007E000282F30E0C901880F991F880F991F820FA9
:1007F000931FFC01ED59FF4F0190F081E02D099509
:1008000089818F5F89838981843080F2809174002F
:100810009091750028E18C39920721F410927500AF
:10082000109274000F90CF91DF910895DF93CF93D2
:10083000CDB7DEB7A3E5B0E0E3E5F0E080818F7BE4
:100840008C93A3E5B0E0E3E5F0E0808188608C93D1
:10085000AFE5B0E0EFE5F0E0808180688C93A9E53A
:10086000B0E0E9E5F0E0808182608C93ECE5F0E0B7
:1008700083E68083A3E5B0E0E3E5F0E080818E7F4E
:100880008C93A3E5B0E0E3E5F0E0808182608C9397
:10089000A3E5B0E0E3E5F0E080818B7F8C93CF911E
:1008A000DF910895DF93CF9300D0CDB7DEB79A8361
:1008B000898389819A8190937B0080937A000F903D
:1008C0000F90CF91DF9108951F920F920FB60F9264
:1008D00011242F933F934F935F936F937F938F9345
:1008E0009F93AF93BF93EF93FF93DF93CF93CDB7D6
:1008F000DEB7809176009091770001969093770013
:100900008093760080917600909177002FE0833479
:10091000920769F41092770010927600E2E5F0E019
:1009200080EC8083E0917A00F0917B000995CF9173
:10093000DF91FF91EF91BF91AF919F918F917F9147
:100940006F915F914F913F912F910F900FBE0F903C
:100950001F9018951F920F920FB60F9211242F938C
:100960003F934F935F936F937F938F939F93AF9337
:10097000BF93EF93FF93DF93CF93CDB7DEB7809113
:100980007800909179000196909379008093780097
:10099000809178009091790027E28031920749F4A4
:1009A0001092790010927800E0917A00F0917B002B
:1009B0000995CF91DF91FF91EF91BF91AF919F91F9
:1009C0008F917F916F915F914F913F912F910F90F8
:1009D0000FBE0F901F901895DF93CF93CDB7DEB762
:1009E00080E060E00E94C002CF91DF910895DF9324
:1009F000CF93CDB7DEB781E060E00E94C002CF9117
:100A0000DF910895DF93CF93CDB7DEB782E060E04A
:100A10000E94C002CF91DF910895DF93CF93CDB7AD
:100A2000DEB780E060E041E00E943E0080E060E0F0
:100A300040E00E943E0181E060E041E00E943E0013
:100A400081E060E040E00E943E0183E060E041E040
:100A50000E943E0083E060E040E00E943E018CEE98
:100A600094E068EE73E040E00E94920387EF94E028
:100A700068EE73E040E00E94920382E095E068EE49
:100A800073E040E00E94920386EC93E00E948003B2
:100A9000FFCFAA1BBB1B51E107C0AA1FBB1FA61794
:100AA000B70710F0A61BB70B881F991F5A95A9F717
:0E0AB00080959095BC01CD010895F894FFCF7C
:00000001FF
